:020000040800F2
:10000000D806002071010008C7040008BF040008DA
:10001000C3040008830300085F0C00080000000010
:100020000000000000000000000000000D050008B6
:100030008703000800000000C9040008F905000853
:100040008B0100088B0100088B0100088B01000860
:100050008B0100088B0100088B0100088B01000850
:100060008B0100088B0100088B0100088B01000840
:100070008B0100088B0100088B0100088B01000830
:100080008B0100088B0100088B0100088B01000820
:100090008B0100088B0100088B0100088B01000810
:1000A0008B0100088B0100088B0100088B01000800
:1000B0008B0100088B0100088B0100088B010008F0
:1000C0008B0100088B0100088B0100088B010008E0
:1000D0008B0100088B0100088B0100088B010008D0
:1000E0008B0100088B0100088B01000800F002F86A
:1000F00000F02EF80AA090E8000C82448344AAF194
:100100000107DA4501D100F023F8AFF2090EBAE891
:100110000F0013F0010F18BFFB1A43F0010318473B
:10012000C01E0000D01E0000002300240025002671
:10013000103A28BF78C1FBD8520728BF30C148BF4A
:100140000B6070471FB500F077F81FBD10B510BDEC
:1001500000F0AEF81146FFF7F5FF01F05FFB00F08D
:10016000CCF803B4FFF7F2FF03BC00F093F80000F3
:100170000948804709480047FEE7FEE7FEE7FEE73B
:10018000FEE7FEE7FEE7FEE7FEE7FEE70448054977
:10019000054A064B70470000FD050008ED00000809
:1001A000D8000020D8060020D8020020D802002065
:1001B0000EB5054614460E4613A000F05AF8284620
:1001C00000F057F816A000F054F8304600F051F84F
:1001D00015A000F04EF800218DF80B100A210DF14A
:1001E0000A008DF80A1008E094FBF1F201FB1242BC
:1001F00094FBF1F4303200F8012D002CF4DC00F017
:1002000038F800F02BF800002A2A2A206173736561
:100210007274696F6E206661696C65643A200000D3
:100220002C2066696C6520002C206C696E652000AE
:10023000704770477047000070B5064C7C44064D0F
:100240007D4403E0206820448047241DAC42F9D15E
:1002500070BD0000B01D0000B01D000010B50020F2
:1002600000F01EF8FFF772FFBDE81040012000F01B
:1002700011B810B5044602E0641C00F004F82078C0
:100280000028F9D110BD08B569468DF8000003209B
:10029000ABBE08BD01491820ABBEFEE72600020038
:1002A00010B500F039F8BDE8104000F02FB87047E5
:1002B000754600F049F8AE4605006946534620F001
:1002C0000700854618B020B5FFF760FFBDE8204065
:1002D0004FF000064FF000074FF000084FF0000B02
:1002E00021F00701AC46ACE8C009ACE8C009ACE8B5
:1002F000C009ACE8C0098D46704710B50446AFF39D
:1003000000802046BDE81040FFF72BBF002801D039
:10031000FFF7C0BF7047000010B5002102A000F039
:1003200017F8012010BD0000534947414252543A8A
:100330002041626E6F726D616C207465726D696EC2
:100340006174696F6E0000000048704774000020FF
:1003500070B505460C460A2000E06D1CFFF793FFC0
:1003600035B128780028F8D102E0641CFFF78BFF34
:1003700014B120780028F8D1BDE870400A20FFF7BA
:1003800082BF00BFFEE770472DE9F041024600251D
:100390000026002000230024002791F803C00CF061
:1003A0000F0591F803C00CF0100CBCF1000F03D046
:1003B00091F802C04CEA050591F800C0BCF1000FAD
:1003C00031D0146800202BE04FF0010C0CFA00F340
:1003D000B1F800C00CEA03069E4220D183004FF022
:1003E0000F0C0CFA03F7BC4305FA03FC4CEA0404B7
:1003F00091F803C0BCF1280F06D14FF0010C0CFAA4
:1004000000FCC2F814C00AE091F803C0BCF1480F28
:1004100005D14FF0010C0CFA00FCC2F810C0401CD2
:100420000828D1D31460B1F800C0BCF1FF0F34DD4F
:10043000546800202EE000F1080C4FF0010808FA83
:100440000CF3B1F800C00CEA03069E4221D18300F0
:100450004FF00F0C0CFA03F7BC4305FA03FC4CEA0F
:10046000040491F803C0BCF1280F05D100F1080C79
:1004700008FA0CF8C2F8148091F803C0BCF1480FD8
:1004800007D100F1080C4FF0010808FA0CF8C2F887
:100490001080401C0828CED35460BDE8F08102468D
:1004A000002093680B400BB1012000E00020704752
:1004B000016170470AB1016100E04161704700BF0E
:1004C000FEE700BFFEE770477047000029B1064A0B
:1004D000D2690243044BDA6104E0034AD2698243E1
:1004E000014BDA61704700000010024029B1064A52
:1004F00092690243044B9A6104E0034A9269824381
:10050000014B9A617047000000100240704710B51F
:1005100000F002F810BD00000CB500200190009022
:100520003348006840F480303149086000BF3048EB
:10053000006800F4003000900198401C0190009881
:1005400018B90198B0F5A06FF1D12948006800F4FE
:10055000003010B10120009001E0002000900098D0
:10056000012843D12348006840F010002149086069
:100570000846006820F0030008600846006840F064
:10058000020008601A4840681949486008464068F7
:1005900048600846406840F480604860084640680B
:1005A00020F47C1048600846406840F4E810486039
:1005B0000846006840F08070086000BF0C48006882
:1005C00000F000700028F9D00948406820F00300CE
:1005D000074948600846406840F00200486000BF94
:1005E0000348406800F00C000828F9D10CBD000059
:1005F00000100240002002407047000010B5134870
:10060000006840F001001149086008464068104940
:1006100008400E494860084600680E4908400B49EA
:1006200008600846006820F480200860084640689A
:1006300020F4FE0048604FF41F008860FFF767FF5A
:100640004FF000600449086010BD00000010024037
:100650000000FFF8FFFFF6FE08ED00E0F0B50C46E5
:10066000154600220021068C4FF6FE773E40068498
:10067000028B018C4FF60C7632407E1C06EA031684
:100680002E433243104EB0420ED0104EB0420BD02B
:10069000B0F1804F08D00E4EB04205D00D4EB042A2
:1006A00002D00D4EB04206D14FF6FD76314044F0F7
:1006B0000106314305E04FF6F576314044F001067E
:1006C000314302830184F0BD002C0140003401401D
:1006D0000004004000080040000C0040F0B50C464B
:1006E0001546002200210026078C4FF6EF7C07EA12
:1006F0000C070784028B018C4FF6FF7707EA04167C
:1007000040F6FF473A404FF6FF7707EA03373A4390
:100710004FF6FF7707EA05273A43114FB8420ED04C
:10072000104FB8420BD0B0F1804F08D00E4FB842F6
:1007300005D00E4FB84202D00D4FB84206D14FF649
:10074000DF77394046F01007394305E04FF65F7711
:10075000394044F01007394302830184F0BD0000A2
:10076000002C01400034014000040040000800401B
:10077000000C0040F0B50C46154600220021002672
:10078000078C4FF6FF6C07EA0C070784828B018CFD
:100790004FF6FF7707EA04264FF60C773A404FF6FC
:1007A000FF7707EA03172F433A43114FB8420ED0A1
:1007B000104FB8420BD0B0F1804F08D00E4FB84266
:1007C00005D00E4FB84202D00D4FB84206D14FF6B9
:1007D000FF57394046F48077394305E04FF2FF5721
:1007E000394044F48077394382830184F0BD0000AE
:1007F000002C01400034014000040040000800408B
:10080000000C0040F0B50C461546002200210026E1
:10081000078C4EF6FF7C07EA0C070784828B018C5D
:100820004FF6FF7707EA043640F6FF473A404FF6A7
:10083000FF7707EA05273A434FF6FF7707EA0337C2
:100840003A43114FB8420ED0104FB8420BD0B0F11E
:10085000804F08D00E4FB84205D00E4FB84202D09C
:100860000D4FB84206D14DF6FF77394046F4805718
:10087000394305E047F6FF57394044F48057394380
:1008800082830184F0BD0000002C0140003401404F
:100890000004004000080040000C004021B1028824
:1008A00042F00102028004E002884FF6FE731A4013
:1008B0000280704731B1B0F8442042F40042A0F801
:1008C000442005E0B0F84420C2F30E02A0F8442012
:1008D0007047F0B50C4615461E4600210022002345
:1008E0000189028B038C4FF6F877394021434FF68C
:1008F000FC473A4040F201173A434FF6DD773B4060
:100900004FF6FF7707EA06172F433B430181028327
:100910000384F0BD0146888C7047000070B5054621
:100920000C46244885420ED0234885420BD0B5F1B1
:10093000804F08D02148854205D02148854202D009
:100940002048854200D100E000BF208850B92389AB
:10095000A28861882846FFF781FEE188284600F0DA
:10096000F7F825E0208804280AD12389A288618825
:100970002846FFF7B3FEE188284600F0F2F817E0BA
:10098000208808280AD12389A28861882846FFF791
:10099000F1FEE188284600F0F1F809E02389A288F9
:1009A00061882846FFF72EFFE188284600F0EFF81F
:1009B00070BD0000002C01400034014000040040E4
:1009C00000080040000C004000210180418001210E
:1009D00081800021C180018170471AB183890B4356
:1009E000838102E083898B438381704770B5002443
:1009F00000220023058C4FF6FE7635400584028CDC
:100A00008388048B4FF68F752C40B51E2C400D88C3
:100A10002C43751E2A400D892A434D882A43144DC4
:100A2000A8420BD0134DA84208D0134DA84205D0C0
:100A3000124DA84202D0124DA84213D14FF6F775BD
:100A40002A404D892A434FF6FB752A408D882A4358
:100A50004FF6FF652B404FF6FF552B408D892B43FA
:100A6000CD892B4383800483CD888586028470BD25
:100A7000002C01400034014000400140004401408E
:100A8000004801400A460021018B4FF6F7731940D8
:100A9000114301837047000070B500220023002439
:100AA000058C4EF6FF7635400584038C8488828B56
:100AB00048F6FF752A404FF6FF452A400D884FF64D
:100AC000FF7606EA05252A434DF6FF752B400D8972
:100AD00006EA05352B434D8806EA05352B430B4DB9
:100AE000A84202D00A4DA84208D14BF6FF752C400F
:100AF0008D894FF6FF7606EA85152C438480828324
:100B0000CD88A0F84050038470BD0000002C014047
:100B1000003401400A460021818B4FF2FF731940D7
:100B20004FF6FF7303EA02231943818370470021C4
:100B3000018041808180C180018141818181C181A9
:100B4000704781867047A0F84010704781847047D5
:100B5000028B4FF6F3731A400283028B0A4302831F
:100B60007047028B4FF2FF331A400283028B4FF61D
:100B7000FF7303EA01231A4302837047828B4FF607
:100B8000F3731A408283828B0A4382837047828B7D
:100B90004FF2FF331A408283828B4FF6FF7303EAD2
:100BA00001231A4382837047002202881D4B98421A
:100BB0000ED01D4B98420BD0B0F1804F08D01B4B8C
:100BC000984205D01A4B984202D01A4B984204D151
:100BD0004FF68F731A404B881A43174B984207D031
:100BE000164B984204D04FF6FF431A40CB881A4365
:100BF00002808B8883850B8803850A4B98420BD033
:100C0000094B984208D00E4B984205D00D4B9842A4
:100C100002D00D4B984201D10B7A038601238382C7
:100C200070470000002C01400034014000040040E7
:100C300000080040000C004000100040001400407C
:100C40000040014000440140004801404FF6FF7160
:100C5000818000210180C18041800172704700BF06
:100C6000FEE700000146B1F1804F01D1012070473D
:100C70001448814201D10220F9E71348814201D191
:100C80000420F4E71148814201D10820EFE7104821
:100C9000814201D11020EAE70E48814201D1202093
:100CA000E5E70D48814201D14020E0E70B48814251
:100CB00001D18020DBE70A48814201D18015D6E7C7
:100CC0000020D4E70004004000080040000C004071
:100CD000001000400014004000180040001C0040BC
:100CE0000020004001461248814201D10420704793
:100CF0001048814201D10820F9E70F48814201D113
:100D00001020F4E70D48814201D12020EFE70C4884
:100D1000814201D14020EAE70A48814201D1802086
:100D2000E5E70948814201D18015E0E70020DEE7D0
:100D300000080140000C0140001001400014014077
:100D400000180140001C01400020014010B500F0D7
:100D500047F810BD10B502460B46002115E001EB27
:100D600041000C4C54F8200090420CD101EB4100A2
:100D700004EB80008088984205D101EB410004EB30
:100D80008000806810BD481CC1B21029E7D3002044
:100D9000F8E700003019000800B5034603E04FF4FF
:100DA0007A7000F005F8181EA3F10103F7D100BD19
:100DB00000EBC001C9004FF0E022516100219161B8
:100DC0000521116100BF4FF0E021096901F4803174
:100DD0000029F8D004214FF0E02211617047000093
:100DE00008B501210420FFF781FB10208DF80300D6
:100DF0000620ADF8000003208DF802006946044883
:100E0000FFF7C2FA06210248FFF752FB08BD0000B7
:100E10000008014070B504460D4629462069FFF7D9
:100E200090FE70BD70B504460D4629462069FFF757
:100E30008AFE70BD2DE9F04F89B004460F469046FA
:100E40001D46DDE9129B182342463946204600F034
:100E5000BFF8044618234A46294604F1080000F06A
:100E6000B7F8A0F1080441463846FFF773FF06467D
:100E700049462846FFF76EFF824616B1BAF1000FC9
:100E800004D16A222DA134A0FFF792F9564504D06F
:100E900070222AA138A0FFF78BF926614149206909
:100EA000884204D10121C014FFF720FB06E020692D
:100EB000FFF7D8FE01210190FFF708FB0020ADF8F5
:100EC0001E00ADF81A00ADF81CB01498ADF818006B
:100ED00000208DF8200006A92069FFF765FE02A812
:100EE000FFF725FE6020ADF808000020ADF81000E7
:100EF0000120ADF80A000020ADF80E0002A920691B
:100F0000FFF774FD02A92069FFF7C6FD08212069DB
:100F1000FFF7B8FD08212069FFF7FCFD01212069DA
:100F2000FFF7BCFC1F492069884202D10121FFF76D
:100F3000C1FC204609B0BDE8F08F000053797374FE
:100F4000656D5C494F5F436F72655C494F5F436FEE
:100F500072652E6370700000302026262022496EB4
:100F600076616C69642050574D2070696E206D6108
:100F70007070696E672122003020262620224F6380
:100F80003120616E64204F6334206D757374207559
:100F90007365207468652073616D652074696D6583
:100FA00072212200002C014010B50446A18820685F
:100FB000FFF775FA08B1012010BD0020FCE770B5FD
:100FC00004460D46A1882A462068FFF773FA70BDD3
:100FD0002DE9F84304460D4616461F462560A680B7
:100FE0002068FFF77FFE80460121FFF77FFAA08887
:100FF000ADF8000003208DF802008DF803706946FB
:101000002068FFF7C1F92046BDE8F88370B50546B2
:101010000C460CB1012000E0002001462846FFF7F5
:10102000CEFF70BD70B504460D460DB1012000E045
:101030000020014604F10800FFF7C1FF70BD70B544
:1010400006460D46002410E08020204100EA0501FC
:101050003046FFF7E7FF01213046FFF7D7FF0021B9
:101060003046FFF7D3FF601CC4B2082CECDB012133
:101070003046FFF7CBFF00213046FFF7C7FF70BDBA
:1010800070B504460D46204600F006F9782120464A
:10109000FFF7D5FF00212046FFF7D1FF2946204664
:1010A000FFF7CDFF204600F0AAF870BD30B503462B
:1010B000012000E04843141EA2F10102FAD130BD24
:1010C00010B50446AE212046FFF7DAFFD5212046B1
:1010D000FFF7D6FF80212046FFF7D2FFA821204648
:1010E000FFF7CEFF3F212046FFF7CAFFD32120465E
:1010F000FFF7C6FF00212046FFF7C2FF4021204630
:10110000FFF7BEFFA1212046FFF7BAFFC821204606
:10111000FFF7B6FFDA212046FFF7B2FF1221204683
:10112000FFF7AEFF81212046FFF7AAFFCF2120461F
:10113000FFF7A6FFD9212046FFF7A2FFF1212046A5
:10114000FFF79EFFDB212046FFF79AFF3021204664
:10115000FFF796FFA4212046FFF792FFA621204625
:10116000FFF78EFF8D212046FFF78AFF14212046CE
:10117000FFF786FFAF212046FFF782FF204600F0F1
:1011800001F810BD70B50646002410E0002221468B
:10119000304600F090F8002505E00021304600F0D0
:1011A0009FF8681CC5B2802DF7DB601CC4B2082C08
:1011B000ECDB70BD2DE9F0478046894615461E469A
:1011C000089F002417E0381B421E0A214046FFF703
:1011D0006DFFB6FBF0F00A21B0FBF1F201FB12004B
:1011E00000F1300A2819C2B253464946404600F081
:1011F00015F8601CC4B2BC42E5DBBDE8F08710B551
:10120000044600212046FFF70DFF01212046FFF78D
:10121000FDFE01212046FFF705FF10BD2DE9F0413D
:1012200080460D4616461F46701EC006020E681EFA
:101230004006010E404600F03EF800240AE0A7F107
:101240002000144A02EB0010015D404600F048F80F
:10125000601CC4B2082CF2DB701EC006020E681EB1
:10126000012303EB4000C1B2404600F024F8002403
:101270000CE0A7F12000074A02EB001204F108007D
:10128000115C404600F02CF8601CC4B2082CF0DB66
:10129000BDE8F081F019000810B504460121204690
:1012A000FFF7C0FE00212046FFF7BCFE00212046CC
:1012B000FFF7ACFE10BD70B506460D46144645F06E
:1012C000B0013046FFF7DCFE102040EA1411304632
:1012D000FFF7D6FE04F00F013046FFF7D1FE70BDD8
:1012E00070B504460D462046FFF7D6FF782120460C
:1012F000FFF7A5FE40212046FFF7A1FE2946204624
:10130000FFF79DFE2046FFF77AFF70BD2DE9F04103
:1013100004460E4617461D46DDF8188014233A464B
:1013200031462046FFF754FE044614234246294620
:1013300004F10800FFF74CFEA0F10804012120464B
:10134000FFF764FE01212046FFF76CFE4FF4FA70B0
:10135000FFF722FD2046FFF7B3FE2046BDE8F081EF
:1013600010B5044600212046FFF729FE012104F1B3
:101370000800FFF724FE10BD2DE9F04104460E469B
:1013800017461D46DDF8188010233A4631462046A0
:10139000FFF71EFE044610234246294604F10800CA
:1013A000FFF716FEA0F1080400212046FFF707FE14
:1013B000002104F10800FFF702FE2046BDE8F0819D
:1013C00070B504460121204600F049F8012120466D
:1013D00000F036F8204600F016F8054600212046B9
:1013E00000F02EF8284670BD10B5044600212046B6
:1013F00000F035F80121204600F022F801212046B6
:1014000000F02DF810BD10B504460A20FFF7D0FCFF
:1014100004F10800FFF7C8FD10BD10B50446012116
:10142000204600F01CF80121204600F009F80021B8
:10143000204600F014F80021204600F001F810BD0D
:1014400070B505460C460CB1012000E000200146B5
:101450002846FFF7B4FD0A20FFF7AAFC70BD70B55F
:1014600004460D460DB1012000E00020014604F1C4
:101470000800FFF7A4FD0A20FFF79AFC70BD70B5C5
:1014800006460D46002410E08020204100EA0501B8
:101490003046FFF7E4FF01213046FFF7D1FF00217E
:1014A0003046FFF7CDFF601CC4B2082CECDB70BDEA
:1014B0002DE9F04104460E4617461D46DDF818801A
:1014C00014233A4631462046FFF782FD0446142392
:1014D0004246294604F10800FFF77AFDA0F108040E
:1014E00001212046FFF76BFD012104F10800FFF701
:1014F00066FD2046BDE8F08170B505460E461446EF
:101500002846FFF78AFFD0212846FFF7B8FF284674
:10151000FFF756FF31462846FFF7B1FF2846FFF791
:101520004FFF21462846FFF7AAFF2846FFF748FF4E
:101530002846FFF759FF70BD2DE9F84304460D46D4
:1015400016461F46DDF820803B4632462946204697
:10155000CDF80080FFF7ACFF044601226B21204646
:10156000FFF7CAFF00226C212046FFF7C5FF0922C2
:1015700019212046FFF7C0FF06221A212046FFF757
:10158000BBFF18221B212046FFF7B6FF18221C21A3
:101590002046FFF7B1FF2046BDE8F8832DE9FE4F56
:1015A00004460D4616461F46DDF840B0DDE90D9AAB
:1015B000DDF830803B46324629462046CDF8008093
:1015C000FFF7DAFE0446CDF800B05246494604F172
:1015D00010000F9BFFF7D0FEA0F11004DDE91412FC
:1015E0001698CDE90012029004F1200011A90EC94D
:1015F000FFF720FCA0F120042046BDE8FE8F70B567
:1016000004462069FFF786F905B200212069FFF73B
:101610009DFA284670BD00002DE9F04F87B00446C2
:101620000F4690461D46DDE9109B0423424639468D
:101630002046FFF7CDFC044604234A46294604F120
:101640000800FFF7C5FCA0F1080441463846FFF743
:1016500081FB064649462846FFF77CFB824616B1C9
:10166000BAF1000F04D1AF222BA132A0FEF7A0FDEA
:10167000564504D0B52228A137A0FEF799FD266172
:1016800040492069884204D10121C014FEF72EFF91
:1016900006E02069FFF7E6FA01210090FEF716FF49
:1016A00004A8FFF7D3FAADF814B01298ADF8100003
:1016B0000020ADF816008DF8180004A92069FFF786
:1016C00073FA00231A4603212069FFF702F901A8E3
:1016D000FFF77AF90A20ADF80C000020ADF80400FD
:1016E00001A92069FFF71AF90420ADF8040001A947
:1016F0002069FFF713F9012211462069FFF76DF900
:1017000000212069FFF722FA01212069FFF7C6F8BE
:10171000204607B0BDE8F08F53797374656D5C495E
:101720004F5F436F72655C494F5F436F72652E6315
:1017300070700000302026262022496E76616C6988
:101740006420656E636F6465722070696E206D61E0
:101750007070696E67212200302026262022454EB7
:101760003120616E6420454E32206D757374207592
:101770007365207468652073616D652074696D659B
:1017800072212200002C014000B58BB04FF4007094
:101790001C4B4210194600901B48FFF7B7FD002074
:1017A00041F61F414FF40062184BCDE90732CDE9F5
:1017B0000910D0101946C201124BCDE90332CDE910
:1017C000051080014210CDE90023029082101946D5
:1017D0000F48FFF7E3FE00204FF6FF7180220B4B0E
:1017E000CDE900210290402219460A48FFF714FF74
:1017F0001020044B0822194600900748FFF79CFE72
:101800000BB000BD000C01400000002000080140AA
:1018100010000020440000205800002088B0FFF78E
:1018200095FA01210420FEF761FE01210846FEF72A
:101830004DFE04208DF81F000320ADF81C0007A901
:101840003748FEF7A1FD04A8FFF700FA0020ADF825
:101850001600ADF812004FF6FF70ADF8140000202E
:10186000ADF8100004A94FF08040FFF79DF9002368
:101870001A4603214FF08040FFF72BF801A8FFF72D
:10188000A3F80A20ADF80C0001A94007FFF746F8BD
:10189000012211469007FFF7A0F800214FF0804089
:1018A000FFF754F901218807FEF7F8FF1D48FFF7FD
:1018B00057FD1C481030FFF753FD002400252EE093
:1018C0003220FFF769FA4FF4616116482030FFF7C4
:1018D000A1FA4FF4616113482030FFF7A3FA4FF0EB
:1018E0008040FFF717F8204404B200214FF08040F9
:1018F000FFF72CF9052023460122022100900A4817
:10190000FFF758FC0948FFF77AFE284405B2052086
:101910002B460122032100900348FFF74BFCCFE741
:1019200000080140100000200000002044000020BA
:101930000008014000010000002C014000080140A7
:1019400000020000002C01400008014000040000DB
:10195000002C01400008014000080000002C01405C
:1019600000080140010000000000004000080140A4
:1019700002000000000000400008014004000000D8
:101980000000004000080140080000000000004086
:101990000008014040000000000400400008014031
:1019A0008000000000040040000C01400100000025
:1019B00000040040000C0140020000000004004050
:1019C000000C01404000000000080040000C0140F5
:1019D0008000000000080040000C014000010000F1
:1019E00000080040000C0140000200000008004018
:1019F00000000000000000000000000000000000E7
:101A0000000000F80000000000000033300000007B
:101A100000100C06100C0600000000000000000082
:101A200040C07840C0784000043F04043F040400F4
:101A3000007088FC08300000001820FF211E000004
:101A4000F008F000E018000000211C031E211E0019
:101A500000F00888700000001E212324192721109F
:101A600010160E0000000000000000000000000042
:101A7000000000E0180402000000000718204000E9
:101A800000020418E00000000040201807000000D9
:101A9000404080F0804040000202010F010202003D
:101AA000000000F0000000000101011F0101010021
:101AB000000000000000000080B070000000000086
:101AC000000000000000000000010101010101010F
:101AD00000000000000000000030300000000000A6
:101AE000000000008060180400601806010000007B
:101AF00000E010080810E000000F102020100F0078
:101B0000001010F8000000000020203F20200000FE
:101B10000070080808887000003028242221300056
:101B200000300888884830000018202020110E005E
:101B30000000C02010F8000000070424243F240007
:101B400000F80888880808000019212020110E00DC
:101B500000E0108888180000000F112020110E00EE
:101B600000380808C83808000000003F00000000E6
:101B70000070880808887000001C222121221C00A7
:101B800000E010080810E0000000312222110F00D0
:101B9000000000C0C0000000000000303000000065
:101BA00000000080000000000000806000000000D5
:101BB00000008040201008000001020408102000EE
:101BC0004040404040404000040404040404040039
:101BD00000081020408000000020100804020100CE
:101BE000007048080808F0000000003036010000CE
:101BF000C030C828E810E0000718272423140B0081
:101C00000000C038E0000000203C230202273820FA
:101C100008F8888888700000203F202020110E00DE
:101C2000C0300808080838000718202020100800D5
:101C300008F808080810E000203F202020100F00BE
:101C400008F88888E8081000203F2020232018008A
:101C500008F88888E8081000203F200003000000F2
:101C6000C03008080838000007182020221E020093
:101C700008F808000008F808203F210101213F2052
:101C8000000808F8080800000020203F202000007D
:101C900000000808F8080800C08080807F0000006D
:101CA00008F888C028180800203F200126382000A6
:101CB00008F8080000000000203F2020202030000D
:101CC00008F8F800F8F80800203F003F003F200027
:101CD00008F830C00008F808203F200007183F002F
:101CE000E01008080810E0000F10202020100F005E
:101CF00008F808080808F000203F21010101000051
:101D0000E01008080810E0000F18242438504F0095
:101D100008F8888888887000203F2000030C302055
:101D200000708808080838000038202121221C0093
:101D3000180808F8080818000000203F20000000DC
:101D400008F808000008F808001F202020201F00C5
:101D50000878880000C83808000007380E01000025
:101D6000F80800F80008F800033C0700073C0300EF
:101D7000081868808068180820302C03032C302055
:101D80000838C800C83808000000203F20000000C4
:101D900010080808C838080020382621202018001C
:101DA000000000FE020202000000007F40404000F0
:101DB000000C30C000000000000000010638C00028
:101DC00000020202FE000000004040407F000000D0
:101DD00000000402020204000000000000000000F5
:101DE00000000000000000008080808080808080F3
:101DF00000020204000000000000000000000000DB
:101E000000008080808000000019242222223F20D0
:101E100008F8008080000000003F112020110E0013
:101E20000000008080800000000E112020201100A2
:101E3000000000808088F800000E112020103F2054
:101E40000000808080800000001F222222221300D8
:101E5000008080F0888888180020203F2020000023
:101E60000000808080808000006B949494936000D8
:101E700008F8008080800000203F210000203F20E3
:101E800000809898000000000020203F20200000E3
:101E9000000000809898000000C08080807F0000D3
:101EA00008F8000080808000203F24022D302000B0
:101EB000000808F8000000000020203F202000005B
:101EC0008080808080808000203F20003F20003F75
:101ED0008080008080800000203F210000203F2083
:101EE0000000808080800000001F202020201F0034
:101EF000808000808000000080FFA12020110E0063
:101F00000000008080808000000E112020A0FF8053
:101F1000808080008080800020203F212000010000
:101F20000000808080808000003324242424190055
:101F3000008080E0808000000000001F2020000062
:101F40008080000000808000001F202020103F20A3
:101F5000808080000080808000010E300806010033
:101F600080800080008080800F300C030C300F00D8
:101F700000808000808080000020312E0E31200003
:101F8000808080000080808080818E701806010033
:101F900000808080808080000021302C2221300051
:101FA00000000000807C020200000000003F404072
:101FB00000000000FF00000000000000FF00000023
:101FC0000002027C800000000040403F0000000052
:101FD00000060101020204040000000000000000ED
:101FE000F41F000800000020D806000028010008A7
:041FF00099F7FFFF5F
:04000005080000ED02
:00000001FF
