:020000040800F2
:10000000600600206D010008590300085103000834
:100010005503000827020008CD0400080000000076
:100020000000000000000000000000007D03000848
:100030002B020008000000005B03000869040008B0
:100040008701000887010008870100088701000870
:100050008701000887010008870100088701000860
:100060008701000887010008870100088701000850
:100070008701000887010008870100088701000840
:100080008701000887010008870100088701000830
:100090008701000887010008870100088701000820
:1000A0008701000887010008870100088701000810
:1000B0008701000887010008870100088701000800
:1000C00087010008870100088701000887010008F0
:1000D00087010008870100088701000887010008E0
:1000E00087010008870100088701000800F002F876
:1000F00000F02CF80AA090E8000C82448344AAF196
:100100000107DA4501D100F021F8AFF2090EBAE893
:100110000F0013F0010F18BFFB1A43F0010318473B
:10012000CC0D0000DC0D000000230024002500267B
:10013000103A28BF78C1FBD8520728BF30C148BF4A
:100140000B6070471FB51FBD10B510BD00F031F832
:100150001146FFF7F7FF00F0B9FB00F04FF803B4CA
:10016000FFF7F2FF03BC00F057F800000948804792
:1001700009480047FEE7FEE7FEE7FEE7FEE7FEE789
:10018000FEE7FEE7FEE7FEE704480549054A064BA1
:10019000704700006D040008ED00000860000020BA
:1001A0006006002060020020600200207047704757
:1001B0007047754600F02CF8AE4605006946534678
:1001C00020F00700854618B020B5FFF7DDFFBDE839
:1001D00020404FF000064FF000074FF000084FF0AE
:1001E000000B21F00701AC46ACE8C009ACE8C0093F
:1001F000ACE8C009ACE8C0098D46704710B50446AC
:10020000AFF300802046BDE81040FFF7A8BF000014
:10021000004870470000002001491820ABBEFEE7EF
:1002200026000200704700BFFEE770472DE9F0414D
:10023000024600250026002000230024002791F814
:1002400003C00CF00F0591F803C00CF0100CBCF1CA
:10025000000F03D091F802C04CEA050591F800C0E8
:10026000BCF1000F31D0146800202BE04FF0010CDE
:100270000CFA00F3B1F800C00CEA03069E4220D14C
:1002800083004FF00F0C0CFA03F7BC4305FA03FC94
:100290004CEA040491F803C0BCF1280F06D14FF0DA
:1002A000010C0CFA00FCC2F814C00AE091F803C07B
:1002B000BCF1480F05D14FF0010C0CFA00FCC2F85C
:1002C00010C0401C0828D1D31460B1F800C0BCF1A4
:1002D000FF0F34DD546800202EE000F1080C4FF0D1
:1002E000010808FA0CF3B1F800C00CEA03069E42BC
:1002F00021D183004FF00F0C0CFA03F7BC4305FA31
:1003000003FC4CEA040491F803C0BCF1280F05D1AA
:1003100000F1080C08FA0CF8C2F8148091F803C038
:10032000BCF1480F07D100F1080C4FF0010808FAA2
:100330000CF8C2F81080401C0828CED35460BDE8E9
:10034000F081016170470AB1016100E041617047CD
:1003500000BFFEE700BFFEE77047704729B1064ABD
:1003600092690243044B9A6104E0034A9269824312
:10037000014B9A617047000000100240704710B5B1
:1003800000F002F810BD00000CB5002001900090B4
:100390003348006840F480303149086000BF30487D
:1003A000006800F4003000900198401C0190009813
:1003B00018B90198B0F5A06FF1D12948006800F490
:1003C000003010B10120009001E000200090009862
:1003D000012843D12348006840F0100021490860FB
:1003E0000846006820F0030008600846006840F0F6
:1003F000020008601A484068194948600846406889
:1004000048600846406840F480604860084640689C
:1004100020F47C1048600846406840F4E8104860CA
:100420000846006840F08070086000BF0C48006813
:1004300000F000700028F9D00948406820F003005F
:10044000074948600846406840F00200486000BF25
:100450000348406800F00C000828F9D10CBD0000EA
:1004600000100240002002407047000010B5134801
:10047000006840F0010011490860084640681049D2
:1004800008400E494860084600680E4908400B497C
:1004900008600846006820F480200860084640682C
:1004A00020F4FE0048604FF41F008860FFF767FFEC
:1004B0004FF000600449086010BD000000100240C9
:1004C0000000FFF8FFFFF6FE08ED00E000BFFEE7CA
:1004D00010B500F001F810BD08B501210420FFF7A8
:1004E0003DFF10208DF803000620ADF8000003202A
:1004F0008DF8020069460448FFF798FE062102487D
:10050000FFF71FFF08BD00000008014070B504465A
:100510000D4621892A462068FFF715FF70BD70B58A
:1005200004460D4661892A466068FFF70CFF70BDDE
:1005300070B506460D46002410E08020204100EAF8
:1005400005013046FFF7EBFF01213046FFF7DEFFE4
:1005500000213046FFF7DAFF601CC4B2082CECDB48
:1005600001213046FFF7D2FF00213046FFF7CEFFD2
:1005700070BD70B504460D46204600F007F978219D
:100580002046FFF7D5FF00212046FFF7D1FF29467F
:100590002046FFF7CDFF204600F0AAF870BD30B529
:1005A0000346012000E04843141EA2F10102FAD1E3
:1005B00030BD10B50446AE212046FFF7DAFFD52145
:1005C0002046FFF7D6FF80212046FFF7D2FFA82163
:1005D0002046FFF7CEFF3F212046FFF7CAFFD32179
:1005E0002046FFF7C6FF00212046FFF7C2FF40214B
:1005F0002046FFF7BEFFA1212046FFF7BAFFC82122
:100600002046FFF7B6FFDA212046FFF7B2FF12219E
:100610002046FFF7AEFF81212046FFF7AAFFCF213A
:100620002046FFF7A6FFD9212046FFF7A2FFF121C0
:100630002046FFF79EFFDB212046FFF79AFF30217F
:100640002046FFF796FFA4212046FFF792FFA62140
:100650002046FFF78EFF8D212046FFF78AFF1421E9
:100660002046FFF786FFAF212046FFF782FF204696
:1006700000F001F810BD70B50646002410E000221D
:100680002146304600F095F8002505E0002130466F
:1006900000F0A4F8681CC5B2802DF7DB601CC4B262
:1006A000082CECDB70BD2DE9F047804689461546E5
:1006B0001E46089F002417E0381B421E0A214046B0
:1006C000FFF76DFFB6FBF0F00A21B0FBF1F201FB82
:1006D000120000F1300A2819C2B25346494640467A
:1006E00000F016F8601CC4B2BC42E5DBBDE8F08740
:1006F00010B5044600212046FFF711FF01212046D6
:10070000FFF704FF01212046FFF709FF10BD00009D
:100710002DE9F04180460D4616461F46701EC00664
:10072000020E681E4006010E404600F042F800240A
:100730000AE0A7F12000144A02EB0010015D4046D8
:1007400000F04CF8601CC4B2082CF2DB701EC0062E
:10075000020E681E012303EB4000C1B2404600F0C8
:1007600028F800240CE0A7F12000074A02EB001251
:1007700004F10800115C404600F030F8601CC4B27F
:10078000082CF0DBBDE8F081FC08000810B5044639
:1007900001212046FFF7C3FE01212046FFF7B6FEE8
:1007A00000212046FFF7BBFE00212046FFF7AEFEEA
:1007B00010BD70B506460D46144645F0B0013046F2
:1007C000FFF7D7FE102040EA14113046FFF7D1FEA4
:1007D00004F00F013046FFF7CCFE70BD70B5044643
:1007E0000D462046FFF7D2FF78212046FFF7A0FEF6
:1007F00040212046FFF79CFE29462046FFF798FE41
:100800002046FFF775FF70BD2DE9FF5F04460D46DA
:1008100016461F46DDF83880256067602681A4F8FB
:100820000A80256067602681A4F80A804FF00009DD
:1008300009E04FF0000A01E00AF1010ABAF57A7FF7
:10084000FAD309F10109B9F57A7FF2D31E4920687C
:10085000401A4FEA902B0BF10200012101FA00F03F
:1008600003900398FFF77AFD17496068401A800AE1
:1008700002900298801C012101FA00F00190019879
:10088000FFF76CFD14208DF8030003208DF80200A3
:10089000ADF8006069462846FFF7C8FCADF8008057
:1008A00069463846FFF7C2FC01212046FFF72EFEBD
:1008B00001212046FFF733FE2046FFF77AFE20464F
:1008C00004B0BDE8F09F0000000801401FB5FFF72D
:1008D000FFFD0920084B08221946009001A8FFF7E8
:1008E00093FF0320642302460146009001A8FFF70E
:1008F000DAFE00BFFEE70000000C0140000000002F
:10090000000000000000000000000000000000F8EF
:1009100000000000000000333000000000100C0652
:10092000100C0600000000000000000040C07840ED
:10093000C0784000043F04043F040400007088FCB9
:1009400008300000001820FF211E0000F008F00011
:10095000E018000000211C031E211E0000F0088882
:10096000700000001E2123241927211010160E00EC
:10097000000000000000000000000000000000E097
:1009800018040200000000071820400000020418AC
:10099000E00000000040201807000000404080F008
:1009A000804040000202010F01020200000000F03E
:1009B000000000000101011F010101000000000012
:1009C0000000000080B07000000000000000000087
:1009D0000000000000010101010101010000000010
:1009E00000000000003030000000000000000000A7
:1009F00080601804006018060100000000E0100884
:100A00000810E000000F102020100F00001010F858
:100A1000000000000020203F202000000070080897
:100A20000888700000302824222130000030088817
:100A3000884830000018202020110E000000C0203F
:100A400010F8000000070424243F240000F8088860
:100A5000880808000019212020110E0000E01088ED
:100A600088180000000F112020110E00003808081F
:100A7000C83808000000003F00000000007088082F
:100A800008887000001C222121221C0000E01008B0
:100A90000810E0000000312222110F00000000C009
:100AA000C0000000000000303000000000000080A6
:100AB0000000000000008060000000000000804096
:100AC00020100800000102040810200040404040AF
:100AD0004040400004040404040404000008102002
:100AE0004080000000201008040201000070480847
:100AF0000808F0000000003036010000C030C828AF
:100B0000E810E0000718272423140B000000C03869
:100B1000E0000000203C23020227382008F88888E3
:100B200088700000203F202020110E00C0300808EF
:100B300008083800071820202010080008F80808C6
:100B40000810E000203F202020100F0008F88888BF
:100B5000E8081000203F20202320180008F888888B
:100B6000E8081000203F200003000000C030080803
:100B70000838000007182020221E020008F808008C
:100B80000008F808203F210101213F20000808F853
:100B9000080800000020203F202000000000080876
:100BA000F8080800C08080807F00000008F888C036
:100BB00028180800203F20012638200008F80800E7
:100BC00000000000203F20202020300008F8F8001E
:100BD000F8F80800203F003F003F200008F830C030
:100BE0000008F808203F200007183F00E010080820
:100BF0000810E0000F10202020100F0008F808084F
:100C00000808F000203F210101010000E010080861
:100C10000810E0000F18242438504F0008F8888886
:100C200088887000203F2000030C30200070880866
:100C3000080838000038202121221C00180808F874
:100C4000080818000000203F2000000008F80800F5
:100C50000008F808001F202020201F0008788800C6
:100C600000C83808000007380E010000F80800F836
:100C70000008F800033C0700073C030008186880E0
:100C80008068180820302C03032C30200838C80056
:100C9000C83808000000203F2000000010080808A5
:100CA000C83808002038262120201800000000FE47
:100CB000020202000000007F40404000000C30C0F3
:100CC00000000000000000010638C000000202021F
:100CD000FE000000004040407F00000000000402D1
:100CE00002020400000000000000000000000000FC
:100CF00000000000808080808080808000020204EC
:100D000000000000000000000000000000008080E3
:100D1000808000000019242222223F2008F8008051
:100D200080000000003F112020110E000000008014
:100D300080800000000E11202020110000000080A3
:100D40008088F800000E112020103F2000008080D5
:100D500080800000001F222222221300008080F0E9
:100D6000888888180020203F202000000000808014
:100D700080808000006B94949493600008F8008059
:100D800080800000203F210000203F2000809898B4
:100D9000000000000020203F202000000000008014
:100DA0009898000000C08080807F000008F8000054
:100DB00080808000203F24022D302000000808F8A9
:100DC000000000000020203F202000008080808064
:100DD00080808000203F20003F20003F80800080F6
:100DE00080800000203F210000203F200000808004
:100DF00080800000001F202020201F0080800080B5
:100E00008000000080FFA12020110E000000008063
:100E100080808000000E112020A0FF808080800054
:100E20008080800020203F21200001000000808081
:100E3000808080000033242424241900008080E076
:100E4000808000000000001F202000008080000043
:100E500000808000001F202020103F208080800024
:100E60000080808000010E30080601008080008034
:100E7000008080800F300C030C300F000080800059
:100E8000808080000020312E0E3120008080800084
:100E90000080808080818E70180601000080808034
:100EA000808080000021302C2221300000000000D2
:100EB000807C020200000000003F40400000000073
:100EC000FF00000000000000FF0000000002027CA4
:100ED000800000000040403F0000000000060101CB
:100EE000020204040000000000000000FC0E0008E4
:0C0EF0000000002060060000280100083F
:04000005080000ED02
:00000001FF
